{
  "_format": "hh-sol-artifact-1",
  "contractName": "Raffle",
  "sourceName": "contracts/Raffle.sol",
  "abi": [
    {
      "inputs": [
        {
          "internalType": "address",
          "name": "vrfCoordinatorV2",
          "type": "address"
        },
        {
          "internalType": "uint256",
          "name": "entranceFee",
          "type": "uint256"
        },
        {
          "internalType": "bytes32",
          "name": "gasLane",
          "type": "bytes32"
        },
        {
          "internalType": "uint64",
          "name": "subId",
          "type": "uint64"
        },
        {
          "internalType": "uint32",
          "name": "callbackGasLimit",
          "type": "uint32"
        },
        {
          "internalType": "uint256",
          "name": "interval",
          "type": "uint256"
        }
      ],
      "stateMutability": "nonpayable",
      "type": "constructor"
    },
    {
      "inputs": [
        {
          "internalType": "address",
          "name": "have",
          "type": "address"
        },
        {
          "internalType": "address",
          "name": "want",
          "type": "address"
        }
      ],
      "name": "OnlyCoordinatorCanFulfill",
      "type": "error"
    },
    {
      "inputs": [],
      "name": "Raffle_NotOpen",
      "type": "error"
    },
    {
      "inputs": [
        {
          "internalType": "uint256",
          "name": "currentBalance",
          "type": "uint256"
        },
        {
          "internalType": "uint256",
          "name": "numPlayes",
          "type": "uint256"
        },
        {
          "internalType": "uint256",
          "name": "raffleState",
          "type": "uint256"
        }
      ],
      "name": "Raffle_UpkeepNotNeeded",
      "type": "error"
    },
    {
      "inputs": [],
      "name": "Raffle__NotEnoughETHEntered",
      "type": "error"
    },
    {
      "inputs": [],
      "name": "Raffle__TransferFailed",
      "type": "error"
    },
    {
      "anonymous": false,
      "inputs": [
        {
          "indexed": true,
          "internalType": "address",
          "name": "player",
          "type": "address"
        }
      ],
      "name": "RaffleEnter",
      "type": "event"
    },
    {
      "anonymous": false,
      "inputs": [
        {
          "indexed": true,
          "internalType": "uint256",
          "name": "requestedId",
          "type": "uint256"
        }
      ],
      "name": "RequestedRaffleWinner",
      "type": "event"
    },
    {
      "anonymous": false,
      "inputs": [
        {
          "indexed": true,
          "internalType": "address",
          "name": "winner",
          "type": "address"
        }
      ],
      "name": "WinnerPicked",
      "type": "event"
    },
    {
      "inputs": [
        {
          "internalType": "bytes",
          "name": "",
          "type": "bytes"
        }
      ],
      "name": "checkUpkeep",
      "outputs": [
        {
          "internalType": "bool",
          "name": "",
          "type": "bool"
        },
        {
          "internalType": "bytes",
          "name": "",
          "type": "bytes"
        }
      ],
      "stateMutability": "view",
      "type": "function"
    },
    {
      "inputs": [],
      "name": "enterRaffle",
      "outputs": [],
      "stateMutability": "payable",
      "type": "function"
    },
    {
      "inputs": [],
      "name": "getEntranceFee",
      "outputs": [
        {
          "internalType": "uint256",
          "name": "",
          "type": "uint256"
        }
      ],
      "stateMutability": "view",
      "type": "function"
    },
    {
      "inputs": [],
      "name": "getInterval",
      "outputs": [
        {
          "internalType": "uint256",
          "name": "",
          "type": "uint256"
        }
      ],
      "stateMutability": "view",
      "type": "function"
    },
    {
      "inputs": [],
      "name": "getLastestTimeStamp",
      "outputs": [
        {
          "internalType": "uint256",
          "name": "",
          "type": "uint256"
        }
      ],
      "stateMutability": "view",
      "type": "function"
    },
    {
      "inputs": [],
      "name": "getNumWords",
      "outputs": [
        {
          "internalType": "uint256",
          "name": "",
          "type": "uint256"
        }
      ],
      "stateMutability": "pure",
      "type": "function"
    },
    {
      "inputs": [],
      "name": "getNumberOfPlayers",
      "outputs": [
        {
          "internalType": "uint256",
          "name": "",
          "type": "uint256"
        }
      ],
      "stateMutability": "view",
      "type": "function"
    },
    {
      "inputs": [
        {
          "internalType": "uint256",
          "name": "index",
          "type": "uint256"
        }
      ],
      "name": "getPlayer",
      "outputs": [
        {
          "internalType": "address",
          "name": "",
          "type": "address"
        }
      ],
      "stateMutability": "view",
      "type": "function"
    },
    {
      "inputs": [],
      "name": "getRaffleState",
      "outputs": [
        {
          "internalType": "enum Raffle.RaffleState",
          "name": "",
          "type": "uint8"
        }
      ],
      "stateMutability": "view",
      "type": "function"
    },
    {
      "inputs": [],
      "name": "getRecentWinner",
      "outputs": [
        {
          "internalType": "address",
          "name": "",
          "type": "address"
        }
      ],
      "stateMutability": "view",
      "type": "function"
    },
    {
      "inputs": [],
      "name": "getRequestConfirmations",
      "outputs": [
        {
          "internalType": "uint256",
          "name": "",
          "type": "uint256"
        }
      ],
      "stateMutability": "pure",
      "type": "function"
    },
    {
      "inputs": [
        {
          "internalType": "bytes",
          "name": "",
          "type": "bytes"
        }
      ],
      "name": "performUpkeep",
      "outputs": [],
      "stateMutability": "nonpayable",
      "type": "function"
    },
    {
      "inputs": [
        {
          "internalType": "uint256",
          "name": "requestId",
          "type": "uint256"
        },
        {
          "internalType": "uint256[]",
          "name": "randomWords",
          "type": "uint256[]"
        }
      ],
      "name": "rawFulfillRandomWords",
      "outputs": [],
      "stateMutability": "nonpayable",
      "type": "function"
    }
  ],
  "bytecode": "0x6101606040523480156200001257600080fd5b5060405162001876380380620018768339818101604052810190620000389190620001ad565b858073ffffffffffffffffffffffffffffffffffffffff1660808173ffffffffffffffffffffffffffffffffffffffff1660601b81525050508460a081815250508573ffffffffffffffffffffffffffffffffffffffff1660c08173ffffffffffffffffffffffffffffffffffffffff1660601b815250508360e081815250508267ffffffffffffffff166101008167ffffffffffffffff1660c01b815250508163ffffffff166101208163ffffffff1660e01b815250506000600160146101000a81548160ff02191690836001811115620001195762000118620002b5565b5b0217905550426002819055508061014081815250505050505050506200036b565b6000815190506200014b81620002e9565b92915050565b600081519050620001628162000303565b92915050565b60008151905062000179816200031d565b92915050565b600081519050620001908162000337565b92915050565b600081519050620001a78162000351565b92915050565b60008060008060008060c08789031215620001cd57620001cc620002e4565b5b6000620001dd89828a016200013a565b9650506020620001f089828a0162000168565b95505060406200020389828a0162000151565b94505060606200021689828a0162000196565b93505060806200022989828a016200017f565b92505060a06200023c89828a0162000168565b9150509295509295509295565b6000620002568262000267565b9050919050565b6000819050919050565b600073ffffffffffffffffffffffffffffffffffffffff82169050919050565b6000819050919050565b600063ffffffff82169050919050565b600067ffffffffffffffff82169050919050565b7f4e487b7100000000000000000000000000000000000000000000000000000000600052602160045260246000fd5b600080fd5b620002f48162000249565b81146200030057600080fd5b50565b6200030e816200025d565b81146200031a57600080fd5b50565b620003288162000287565b81146200033457600080fd5b50565b620003428162000291565b81146200034e57600080fd5b50565b6200035c81620002a1565b81146200036857600080fd5b50565b60805160601c60a05160c05160601c60e0516101005160c01c6101205160e01c6101405161148f620003e7600039600081816107eb01526108a10152600061069b01526000610678015260006106570152600061061b0152600081816102fa01526103f7015260008181610337015261038b015261148f6000f3fe6080604052600436106100c25760003560e01c806353a2c19a1161007f5780638ba05b0e116100595780638ba05b0e1461023857806391ad27b414610263578063e55ae4e81461028e578063fd6673f5146102cb576100c2565b806353a2c19a146101a45780635f1b0fd8146101cf5780636e04ff0d146101fa576100c2565b806309bc33a7146100c7578063115cbaf5146100f25780631fe543e31461011d5780632cfcc539146101465780634585e33b14610150578063473f1ddc14610179575b600080fd5b3480156100d357600080fd5b506100dc6102f6565b6040516100e99190611095565b60405180910390f35b3480156100fe57600080fd5b5061010761031e565b604051610114919061107a565b60405180910390f35b34801561012957600080fd5b50610144600480360381019061013f9190610e6e565b610335565b005b61014e6103f5565b005b34801561015c57600080fd5b5061017760048036038101906101729190610d7e565b610564565b005b34801561018557600080fd5b5061018e610763565b60405161019b9190610fb3565b60405180910390f35b3480156101b057600080fd5b506101b961078d565b6040516101c69190611095565b60405180910390f35b3480156101db57600080fd5b506101e461079c565b6040516101f19190611095565b60405180910390f35b34801561020657600080fd5b50610221600480360381019061021c9190610dcb565b6107a9565b60405161022f929190610ff7565b60405180910390f35b34801561024457600080fd5b5061024d610893565b60405161025a9190611095565b60405180910390f35b34801561026f57600080fd5b5061027861089d565b6040516102859190611095565b60405180910390f35b34801561029a57600080fd5b506102b560048036038101906102b09190610e14565b6108c5565b6040516102c29190610fb3565b60405180910390f35b3480156102d757600080fd5b506102e061090c565b6040516102ed9190611095565b60405180910390f35b60007f0000000000000000000000000000000000000000000000000000000000000000905090565b6000600160149054906101000a900460ff16905090565b7f000000000000000000000000000000000000000000000000000000000000000073ffffffffffffffffffffffffffffffffffffffff163373ffffffffffffffffffffffffffffffffffffffff16146103e757337f00000000000000000000000000000000000000000000000000000000000000006040517f1cf993f40000000000000000000000000000000000000000000000000000000081526004016103de929190610fce565b60405180910390fd5b6103f18282610918565b5050565b7f000000000000000000000000000000000000000000000000000000000000000034101561044f576040517fbd4e069500000000000000000000000000000000000000000000000000000000815260040160405180910390fd5b600060018111156104635761046261136f565b5b600160149054906101000a900460ff1660018111156104855761048461136f565b5b146104bc576040517fd6e19a8d00000000000000000000000000000000000000000000000000000000815260040160405180910390fd5b6000339080600181540180825580915050600190039060005260206000200160009091909190916101000a81548173ffffffffffffffffffffffffffffffffffffffff021916908373ffffffffffffffffffffffffffffffffffffffff1602179055503373ffffffffffffffffffffffffffffffffffffffff167f0805e1d667bddb8a95f0f09880cf94f403fb596ce79928d9f29b74203ba284d460405160405180910390a2565b600061057e604051806020016040528060008152506107a9565b509050806105ed5747600080549050600160149054906101000a900460ff1660018111156105af576105ae61136f565b5b6040517fe059521b0000000000000000000000000000000000000000000000000000000081526004016105e4939291906110b0565b60405180910390fd5b60018060146101000a81548160ff021916908360018111156106125761061161136f565b5b021790555060007f000000000000000000000000000000000000000000000000000000000000000073ffffffffffffffffffffffffffffffffffffffff16635d3b1d307f00000000000000000000000000000000000000000000000000000000000000007f000000000000000000000000000000000000000000000000000000000000000060037f000000000000000000000000000000000000000000000000000000000000000060016040518663ffffffff1660e01b81526004016106dc959493929190611027565b602060405180830381600087803b1580156106f657600080fd5b505af115801561070a573d6000803e3d6000fd5b505050506040513d601f19601f8201168201806040525081019061072e9190610e41565b9050807fcd6e45c8998311cab7e9d4385596cac867e20a0587194b954fa3a731c93ce78b60405160405180910390a250505050565b6000600160009054906101000a900473ffffffffffffffffffffffffffffffffffffffff16905090565b6000600163ffffffff16905090565b6000600361ffff16905090565b6000606060008060018111156107c2576107c161136f565b5b600160149054906101000a900460ff1660018111156107e4576107e361136f565b5b14905060007f0000000000000000000000000000000000000000000000000000000000000000600254426108189190611190565b11905060008060008054905011905060008047119050600084801561083a5750835b80156108435750825b801561084c5750815b9050806040518060400160405280600381526020017f3078300000000000000000000000000000000000000000000000000000000000815250965096505050505050915091565b6000600254905090565b60007f0000000000000000000000000000000000000000000000000000000000000000905090565b60008082815481106108da576108d961139e565b5b9060005260206000200160009054906101000a900473ffffffffffffffffffffffffffffffffffffffff169050919050565b60008080549050905090565b60008080549050826000815181106109335761093261139e565b5b602002602001015161094591906112e0565b9050600080828154811061095c5761095b61139e565b5b9060005260206000200160009054906101000a900473ffffffffffffffffffffffffffffffffffffffff16905080600160006101000a81548173ffffffffffffffffffffffffffffffffffffffff021916908373ffffffffffffffffffffffffffffffffffffffff1602179055506000600160146101000a81548160ff021916908360018111156109f0576109ef61136f565b5b0217905550600067ffffffffffffffff811115610a1057610a0f6113cd565b5b604051908082528060200260200182016040528015610a3e5781602001602082028036833780820191505090505b5060009080519060200190610a54929190610b49565b504260028190555060008173ffffffffffffffffffffffffffffffffffffffff1647604051610a8290610f9e565b60006040518083038185875af1925050503d8060008114610abf576040519150601f19603f3d011682016040523d82523d6000602084013e610ac4565b606091505b5050905080610aff576040517fa1d04b3900000000000000000000000000000000000000000000000000000000815260040160405180910390fd5b8173ffffffffffffffffffffffffffffffffffffffff167f5b690ec4a06fe979403046eaeea5b3ce38524683c3001f662c8b5a829632f7df60405160405180910390a25050505050565b828054828255906000526020600020908101928215610bc2579160200282015b82811115610bc15782518260006101000a81548173ffffffffffffffffffffffffffffffffffffffff021916908373ffffffffffffffffffffffffffffffffffffffff16021790555091602001919060010190610b69565b5b509050610bcf9190610bd3565b5090565b5b80821115610bec576000816000905550600101610bd4565b5090565b6000610c03610bfe8461110c565b6110e7565b90508083825260208201905082856020860282011115610c2657610c25611406565b5b60005b85811015610c565781610c3c8882610d54565b845260208401935060208301925050600181019050610c29565b5050509392505050565b6000610c73610c6e84611138565b6110e7565b905082815260208101848484011115610c8f57610c8e61140b565b5b610c9a84828561126d565b509392505050565b600082601f830112610cb757610cb6611401565b5b8135610cc7848260208601610bf0565b91505092915050565b60008083601f840112610ce657610ce5611401565b5b8235905067ffffffffffffffff811115610d0357610d026113fc565b5b602083019150836001820283011115610d1f57610d1e611406565b5b9250929050565b600082601f830112610d3b57610d3a611401565b5b8135610d4b848260208601610c60565b91505092915050565b600081359050610d6381611442565b92915050565b600081519050610d7881611442565b92915050565b60008060208385031215610d9557610d94611415565b5b600083013567ffffffffffffffff811115610db357610db2611410565b5b610dbf85828601610cd0565b92509250509250929050565b600060208284031215610de157610de0611415565b5b600082013567ffffffffffffffff811115610dff57610dfe611410565b5b610e0b84828501610d26565b91505092915050565b600060208284031215610e2a57610e29611415565b5b6000610e3884828501610d54565b91505092915050565b600060208284031215610e5757610e56611415565b5b6000610e6584828501610d69565b91505092915050565b60008060408385031215610e8557610e84611415565b5b6000610e9385828601610d54565b925050602083013567ffffffffffffffff811115610eb457610eb3611410565b5b610ec085828601610ca2565b9150509250929050565b610ed3816111c4565b82525050565b610ee2816111d6565b82525050565b610ef1816111e2565b82525050565b6000610f0282611169565b610f0c8185611174565b9350610f1c81856020860161127c565b610f258161141a565b840191505092915050565b610f398161125b565b82525050565b6000610f4c600083611185565b9150610f578261142b565b600082019050919050565b610f6b816111ff565b82525050565b610f7a8161122d565b82525050565b610f8981611237565b82525050565b610f9881611247565b82525050565b6000610fa982610f3f565b9150819050919050565b6000602082019050610fc86000830184610eca565b92915050565b6000604082019050610fe36000830185610eca565b610ff06020830184610eca565b9392505050565b600060408201905061100c6000830185610ed9565b818103602083015261101e8184610ef7565b90509392505050565b600060a08201905061103c6000830188610ee8565b6110496020830187610f8f565b6110566040830186610f62565b6110636060830185610f80565b6110706080830184610f80565b9695505050505050565b600060208201905061108f6000830184610f30565b92915050565b60006020820190506110aa6000830184610f71565b92915050565b60006060820190506110c56000830186610f71565b6110d26020830185610f71565b6110df6040830184610f71565b949350505050565b60006110f1611102565b90506110fd82826112af565b919050565b6000604051905090565b600067ffffffffffffffff821115611127576111266113cd565b5b602082029050602081019050919050565b600067ffffffffffffffff821115611153576111526113cd565b5b61115c8261141a565b9050602081019050919050565b600081519050919050565b600082825260208201905092915050565b600081905092915050565b600061119b8261122d565b91506111a68361122d565b9250828210156111b9576111b8611311565b5b828203905092915050565b60006111cf8261120d565b9050919050565b60008115159050919050565b6000819050919050565b60008190506111fa8261142e565b919050565b600061ffff82169050919050565b600073ffffffffffffffffffffffffffffffffffffffff82169050919050565b6000819050919050565b600063ffffffff82169050919050565b600067ffffffffffffffff82169050919050565b6000611266826111ec565b9050919050565b82818337600083830152505050565b60005b8381101561129a57808201518184015260208101905061127f565b838111156112a9576000848401525b50505050565b6112b88261141a565b810181811067ffffffffffffffff821117156112d7576112d66113cd565b5b80604052505050565b60006112eb8261122d565b91506112f68361122d565b92508261130657611305611340565b5b828206905092915050565b7f4e487b7100000000000000000000000000000000000000000000000000000000600052601160045260246000fd5b7f4e487b7100000000000000000000000000000000000000000000000000000000600052601260045260246000fd5b7f4e487b7100000000000000000000000000000000000000000000000000000000600052602160045260246000fd5b7f4e487b7100000000000000000000000000000000000000000000000000000000600052603260045260246000fd5b7f4e487b7100000000000000000000000000000000000000000000000000000000600052604160045260246000fd5b600080fd5b600080fd5b600080fd5b600080fd5b600080fd5b600080fd5b6000601f19601f8301169050919050565b50565b6002811061143f5761143e61136f565b5b50565b61144b8161122d565b811461145657600080fd5b5056fea2646970667358221220164ff0fa25a641aabe5832c78f0ec0ee716d646860ac247f9b7114fbee85012364736f6c63430008070033",
  "linkReferences": {},
  "deployedLinkReferences": {}
}